:04000000ECEF06F02B
:08000800046ED8CF05F0E0CF33
:1000100006F00001E9CF0CF0EACF07F0E1CF08F0DD
:10002000E2CF09F0D9CF0AF0DACF0BF0F3CF12F01C
:10003000F4CF13F0FACF14F000C00EF001C00FF0AF
:1000400002C010F003C011F09DA22AEF00F09EB292
:1000500075EF00F00EC000F00FC001F010C002F00C
:1000600011C003F00CC0E9FF07C0EAFF078E08C00B
:10007000E1FF09C0E2FF0AC0D9FF0BC0DAFF12C0DE
:10008000F3FF13C0F4FF14C0FAFF045006C0E0FFF2
:1000900005C0D8FF1000F2CF0DF0F29EF76AB00F46
:1000A000F66E000EF7220900F5500DBEF28E12001A
:1000B000280C0106433A202566200A48756D6564C0
:1000C00061643A202566252500004D6178543A2068
:1000D00000004D696E543A2000004D6178483A2086
:1000E00000004D696E483A2000001750080809E2E8
:1000F000176A1850620803E2186A168601D0182A97
:1001000001D0172A9E922AEF00F0EA6A420EE96EA9
:10011000EF500DE0020E016E006A002EFED7012E98
:10012000FBD7970E006E002EFED7EF2EF3D7000CF4
:1001300049B002D08C9601D08C86959649B202D0F7
:100140008C9401D08C84959449B402D08C9201D0C7
:100150008C82959249B602D08C9001D08C8095907B
:10016000000094948B8400D000D094948B94000C65
:100170004A6A94948B84000095864A9083B64A809C
:1001800095844A9283B44A8295824A9483B24A847F
:1001900095804A9683B04A8694948B944AC001F025
:1001A000000C94928B820000E3DF01C049F0E0DF95
:1001B00001C048F04938006EF00E0016005048109B
:1001C000016EE6EF00F094908B90EBD701C048F001
:1001D00001BEFBD7465203E094908B8002D09490EE
:1001E0008B90000094928B92000094948B944738EB
:1001F000486E0F0E481648C049F09ADF47500F0B63
:10020000486E496E95DF000C94908B9094928B927F
:1002100094948B940F0E426E78DF2A6A2A5002085B
:1002200008E3030E496E84DF050E426E6EDF2A2A54
:10023000F5D7020E496E7CDF2A6A2A5003080EE3C6
:10024000036A2A50F2CF2BF0F29E25DF2BBEF28EEE
:100250002B6E466A476EB7DF2A2AEFD742EF07F0C8
:10026000432C01D003D0400E446E01D0446A010EED
:10027000425C442644508009456E466A476EA3DFBF
:10028000000CFF0E946E82CF2BF02C6A2A5064086B
:1002900017E1030E2D6E2D50070811E32BC000F05F
:1002A0002D50016E04E0D8900032012EFCD700A042
:1002B00004D0020E2D5C2C6E02D02D2AECD719D062
:1002C0002A50090A01E005D0958E2C6A83BE2C2A9B
:1002D00010D0020E2A242E6E2BC000F02E50016E7C
:1002E00004E0D8900032012EFCD72C6A00B02C2AF2
:1002F00000D02CC001F0000C8E0E006E35C001F055
:1003000034C002F0036A015209E102C001F0026A3E
:10031000080E005E015202E1006A08D0D89001BECA
:1003200004D0023601360006F9D7019E000C415078
:10033000D8B471D0006E4550D8B46DD0002604E317
:10034000810E002668E204D07F0E005E64E363E065
:1003500042C049F04650491A428E468E44504802E7
:10036000F4CF4BF043504702F4CF03F0F3CF4AF001
:100370004802F3504B26F4504A22000E0322445008
:100380004702F3504B26F4504A22000E026A032221
:10039000022242504802F3504A26F4500322000E33
:1003A000022242504702F3500326F4500222000E6C
:1003B000016A012244504602F3504A26F4500322B7
:1003C000000E0222012243504602F3500326F4504D
:1003D0000222000E012242504602F3500226F4503F
:1003E0000122002A01BE05D04A3603360236013604
:1003F0000006000E4AAE0AD0032A02220122015052
:1004000005E1025003E1035001E1002A49BE018EDB
:1004100049AE019E04D0006A016A026A036A000CB8
:100420003850D8B4A5D0446E3C50D8B4A1D0445E66
:1004300005E37F0E4426D8B09BD006D0810E445EE3
:10044000D8A096D0D8B494D044C000F0016A026A13
:10045000036A436A39C042F0428E3AC041F03BC061
:1004600040F0190E446E3F50405E0DE2010E415EB9
:100470000AE2425E08E2435E06E2432A422A412A39
:100480003F50402628D03E50415E12E2010E425EAF
:100490000FE2435E0DE2432A422A3E5041263F507E
:1004A000402619E3412A17E1422A15E1432A13D0D5
:1004B0003D508009425E0EE2010E435E0BE2432A8C
:1004C0003D50800942263E504126E9E3422AE7E1B9
:1004D000432AE5D70380442E01D00BD0D890403674
:1004E000413642364336D890033602360136453619
:1004F000BAD745A006D0D890013202320332453235
:1005000002D0000635E045BE1ED0D89040364136B8
:10051000423643363F50405E07E2010E415E04E240
:10052000425E02E2435E1AE33E50415E05E2010E86
:10053000425E02E2435E12E33D508009425E03E206
:10054000010E435E0BE3032A09E1022A07E1012AB7
:1005500005E1002A0DE001320232033239C044F0D5
:100560003D50441A44AE02D0018E06D0019E04D004
:10057000006A016A026A036A000C35C03CF0395017
:100580003C1A3CAE05D0D894D89035BED8802FD038
:1005900035C03CF038C03DF034503D5E06E03CAE26
:1005A00026D0D850010AD86E22D039C03DF035503F
:1005B0003D5E06E03CAE1BD0D850010AD86E17D085
:1005C0003AC03DF036503D5E06E03CAE10D0D8500B
:1005D000010AD86E0CD03BC03DF037503D5E06E0BE
:1005E0003CAE05D0D850010AD86E01D0D890000C8E
:1005F00041500C0A05E0060A0BE0020A0FE013D096
:10060000466A010E476EDFDD020E426E7EDD11D0BE
:10061000010E426E020E436E23DE0BD0466A100EB0
:10062000476ED1DD06D0010E466E41C047F0CBDDEE
:1006300000D0000C4150B608416E036A42C045F03C
:10064000428ED89042324332443203320232013277
:100650000032412EF6D745AE0BD0001E011E021E01
:10066000031E002AD8B4012AD8B4022AD8B4032A17
:100670009EEF03F0006A016A026A036A496A4A6AE5
:100680004B6A4C6A48504710461045102CE0200E2B
:100690004D6ED890413642364336443649364A3656
:1006A0004B364C3648504C5C08E147504B5C05E1FA
:1006B00046504A5C02E14550495C0FE34550495EB3
:1006C0004650D8A0463C4A5E4750D8A0473C4B5EB7
:1006D0004850D8A0483C4C5ED880003601360236DF
:1006E00003364D2ED6D7EA6A490EE96E000CE95062
:1006F000396E38503B6E19E037C044F036C043F0D5
:1007000035C042F034C041F0486A476A200E466E58
:10071000820E456E0CDE03C037F002C036F001C019
:1007200035F000C034F03B2EE7D737C044F036C078
:1007300043F035C042F034C041F07CD703C037F0FD
:1007400002C036F001C035F000C034F037AE0DD035
:100750003906398A341E351E361E371E342AD8B45F
:10076000352AD8B4362AD8B4372A3B0E406E9A0EB2
:100770003F6ECA0E3E6E3D6A0A0E3B6E3850D8B4CC
:10078000392A37C044F036C043F035C042F034C097
:1007900041F040C048F03FC047F03EC046F03DC089
:1007A00045F068DF0150EFCF34F0ECCF35F0ECCFFF
:1007B00036F0ECCF37F000520FE138283B5C0CE00C
:1007C00039500CE00F0B3B5C01E037E239BE35D00D
:1007D00039BC04D0200E2DD0200E391639AA0CD0E9
:1007E000399A3850D8A439060050396E2D0E416E12
:1007F000FFDE3950006E396A38503B5C0AE1005028
:10080000396E2E0E416EF4DE3950006E200E391610
:10081000000E300E39AA0DD0399A3850D8A43906B6
:100820000050396E2D0E416EE3DE3950006E396A8C
:10083000300E002600C041F0DBDE40C044F03FC077
:1008400043F03EC042F03DC041F0486A476A466A04
:100850000A0E456E0FDF03C040F002C03FF001C03A
:100860003EF000C03DF03B2E8CD7000C0900F6CFC7
:1008700035F0F7CF36F0F5CF41F0BADE35C0F6FFF0
:1008800036C0F7FF342EF2D700EF06F00900F5521C
:100890000CE0F6CF34F0F7CF35F0F5CF41F0A8DE1D
:1008A00034C0F6FF35C0F7FFF1D7000C3A50016AAB
:1008B000395C03E239C000F00CD0006A080E3B6ED0
:1008C000393600363A50005CD8B0006E01363B2E07
:1008D000F7D7000C015037C039F0640E3A6EE6DFEE
:1008E00000C037F00150300E07E138A20CD038B606
:1008F0000AD038B8200E03D03896389838800126B0
:1009000001C041F075DE37C039F00A0E3A6ECEDF15
:1009100000C037F00150300E06E138B608D038A0DC
:1009200006D038B8200E012601C041F061DE300E3D
:10093000372637C041F05CDEACEF04F03550345C54
:1009400006E13C0E416E54DE200E416E51DE36C093
:1009500037F01B0E386EBED73550345C06E1200EE2
:10096000416E46DE3E0E416E43DE0A0E416E40DEB3
:10097000000C1950000A07E0010AD8B46CD1020A31
:10098000D8B4FAD1FAD1000E016EC250C30B0110D7
:10099000C26E060E006E002EFED70000C282C2B2EA
:1009A000FED7C450356A346EA7DC00C034F001C0F5
:1009B00035F002C036F003C037F003C044F002C087
:1009C00043F001C042F000C041F0486A476A480E57
:1009D000466E850E456EABDC00C034F001C035F0CC
:1009E00002C036F003C037F003C03BF002C03AF05B
:1009F00001C039F000C038F03F6A3E6A7F0E3D6E9C
:100A0000860E3C6E0DDD03C02EF002C02DF001C03D
:100A10002CF000C02BF0040E016EC250C30B01106D
:100A2000C26E060E006E002EFED70000C282C2B259
:100A3000FED7C450356A346E5FDC00C034F001C0AC
:100A400035F002C036F003C037F003C044F002C0F6
:100A500043F001C042F000C041F0486A476A480EC6
:100A6000466E850E456E63DC00C034F001C035F083
:100A700002C036F003C037F003C03BF002C03AF0CA
:100A800001C039F000C038F03F6A3E6A7F0E3D6E0B
:100A9000860E3C6EC5DC03C032F002C031F001C0EE
:100AA00030F000C02FF0356A1DC034F025DC32C0B4
:100AB00037F031C036F030C035F02FC034F003C00D
:100AC0003BF002C03AF001C039F000C038F055DD0B
:100AD00003E38A80939018D0356A1CC034F00CDC94
:100AE00003C037F002C036F001C035F000C034F06A
:100AF00032C03BF031C03AF030C039F02FC038F08E
:100B00003CDD02E38A909390356A1BC034F07CECA4
:100B100001F02EC037F02DC036F02CC035F02BC0C0
:100B200034F003C03BF002C03AF001C039F000C01D
:100B300038F023DD03E38A82939219D0356A1AC014
:100B400034F07CEC01F003C037F002C036F001C095
:100B500035F000C034F02EC03BF02DC03AF02CC070
:100B600039F02BC038F009DD02E38A9293922EC04F
:100B700037F02DC036F02CC035F02BC034F021C03A
:100B80003BF020C03AF01FC039F01EC038F0F5DC51
:100B900012E132C037F031C036F030C035F02FC02E
:100BA00034F025C03BF024C03AF023C039F022C015
:100BB00038F0E3DC45E0010E426E436E30EC01F0AC
:100BC0000C0E416E15DD430E416E12DD3A0E416E84
:100BD0000FDD200E416E0CDD890EE96E2EC037F060
:100BE0002DC036F02CC035F02BC034F0020E386E1C
:100BF0007EDDB90EF66E000EF76E0B0E346E36D635
:100C0000890EE96E32C037F031C036F030C035F0B1
:100C10002FC034F0020E386E6ADD250E416EE8DC1E
:100C20002EC021F02DC020F02CC01FF02BC01EF0D4
:100C300032C025F031C024F030C023F02FC022F0A4
:100C40002A5208E016B406D00C0E416ED1DC168490
:100C5000010E196E92D02A52D8B48DD0336A010E8B
:100C60002A5CFB0F2EE2050FBFEF06F016B408D08A
:100C7000275202E0010E275E265202E0010E265E98
:100C800020D016B40AD02750010802E3010E27260F
:100C90002650020802E3010E262613D0FF0E336E03
:100CA00010D0010E336E0DD016B40AD01684196A16
:100CB000216A206A1F6A1E6A256A246A236A226AD8
:100CC00000D02650FC0F13E2040FD6EF06F033508D
:100CD0001A260DD033501B260AD033501C2607D0BD
:100CE00033501D2604D016840C0E416E81DC275231
:100CF0000BE1CA0EF66E000EF76EC8DD26C034F0AA
:100D0000356A1AC036F01ADE275001080CE3D20EFD
:100D1000F66E000EF76EBADD26C034F0010E356EA9
:100D20001BC036F00BDE275002080EE327520CE002
:100D3000DA0EF66E000EF76EA9DD26C034F0020E54
:100D4000356E1CC036F0FADD275003080FE327503C
:100D500001080CE2E20EF66E000EF76E97DD26C07B
:100D600034F0030E356E1DC036F0E8DD010E426E24
:100D7000436E30EC01F001D000D05DEF07F0F2CF10
:100D80000DF0F29EE824F76AF736A30FF66E0D0E0B
:100D9000F7220A00F550FA6E0800F5500DBEF28EEB
:100DA000F96E6C0C9C0CA80CA20C820CF2CF0DF00E
:100DB000F29EE824F76AF736D10FF66E0D0EF72291
:100DC0000A00F550FA6E0800F5500DBEF28EF96E6D
:100DD000CE0CD40CDA0CE00CF86AD09E078EEA6ACE
:100DE000E96A700ED36ED35016801692169416963A
:100DF000176A186A196A4B0E1A6E190E1B6E4B0E83
:100E00001C6E190E1D6E216A206A1F6A1E6A256AF1
:100E1000246A236A226A266A276AC150C00B0F0916
:100E2000C16E070EB46EC150C00B0D09C16EC0502B
:100E3000C00BC06EC09EC2809698C69A949A948841
:100E40009496010EC66E000EC76ED190800ED56EC0
:100E5000CD6A000E0409CA6EC70ECB6E070EB46EC3
:100E60009250926E060E006E002EFED70000B45017
:100E7000A19CB56A9D82C00EF212720ED36ED35041
:100E800004EF01F0010E426E436E30EC01F08A90E7
:100E900093908A929392010E426E436E30EC01F071
:100EA000640E2A6E41EC01F001C028F016A006D0B5
:100EB00016A604D028C02AF05CD51696090E2A6E14
:100EC00041EC01F0299001B0298016B205D029A08B
:100ED00002D01670168202D029A01692285203E181
:0A0EE00016A401D01694DCD703001D
:020000040030CA
:0E00000000C8190E008781000FC00FE00F40EE
:00000001FF
;PIC18F4620
;CRC=BAAA  CREATED="11-jul.-23 17:17"
