:040000009DEF01F07F
:08000800046ED8CF05F0E0CF33
:1000100006F00001E9CF0CF0EACF07F0E1CF08F0DD
:10002000E2CF09F0D9CF0AF0DACF0BF0F3CF12F01C
:10003000F4CF13F0FACF14F000C00EF001C00FF0AF
:1000400002C010F003C011F09DA22AEF00F09EB292
:100050005AEF00F00EC000F00FC001F010C002F027
:1000600011C003F00CC0E9FF07C0EAFF078E08C00B
:10007000E1FF09C0E2FF0AC0D9FF0BC0DAFF12C0DE
:10008000F3FF13C0F4FF14C0FAFF045006C0E0FFF2
:1000900005C0D8FF1000F2CF0DF0F29EF76AB00F46
:1000A000F66E000EF7220900F5500DBEF28E12001A
:1000B000280C01061750080816E2176A640ED8804B
:1000C0001A54185C03E3186A168001D0182A16A087
:1000D00009D01950010805E3050E196E93908A7036
:1000E00001D0190601D0172A9E922AEF00F0EA6A81
:1000F0002A0EE96EEF500DE0020E016E006A002E2E
:10010000FED7012EFBD7970E006E002EFED7EF2EE6
:10011000F3D7000C31B002D08C9601D08C86959626
:1001200031B202D08C9401D08C84959431B402D039
:100130008C9201D08C82959231B602D08C9001D0F5
:100140008C809590000094948B8400D000D094947F
:100150008B94000C326A94948B84000095863290C4
:1001600083B632809584329283B4328295823294FF
:1001700083B232849580329683B0328694948B9485
:1001800032C001F0000C94928B820000E3DF01C0CA
:1001900031F0E0DF01C030F03138006EF00E0016B3
:1001A00000503010016ED8EF00F094908B90EBD798
:1001B00001C030F001BEFBD72E5203E094908B803B
:1001C00002D094908B90000094928B9200009494B3
:1001D0008B942F38306E0F0E301630C031F09ADF0E
:1001E0002F500F0B306E316E95DF000C94908B907A
:1001F00094928B9294948B940F0E2A6E78DF296AD6
:100200002950020808E3030E316E84DF050E2A6EC2
:100210006EDF292AF5D7020E316E7CDF296A29505C
:1002200003080EE3036A2950F2CF2AF0F29E33DF6F
:100230002ABEF28E2A6E2E6A2F6EB7DF292AEFD7DA
:10024000F0EF01F02B2C01D003D0400E2C6E01D02A
:100250002C6A010E2A5C2C262C5080092D6E2E6AE9
:100260002F6EA3DF000CFF0E946E82CF2AF02B6A54
:1002700029500A0816E1030E1C6E1C50070810E3F3
:100280002AC000F01C50016E04E0D8900032012E0C
:10029000FCD700A003D0020E1C5C2B6E1C2AEDD7ED
:1002A0000FD0020E29242C6E2AC000F02C50016EB3
:1002B00004E0D8900032012EFCD72B6A00B02B2A24
:1002C0002BC001F08DEF01F029500C0A05E0060A61
:1002D0000BE0020A0FE013D02E6A010E2F6E65DFCD
:1002E000020E2A6E04DF11D0010E2A6E020E2B6E52
:1002F000A9DF0BD02E6A100E2F6E57DF06D0010E2D
:100300002E6E29C02FF051DF00D096EF01F016A01D
:1003100012D016900A0E296EA6D701C01DF0010E4C
:100320002A6E2B6E8FDF0C0E296ECED71D5203E185
:100330001B5201E01B6AF9EF01F0F86AD09E078EAC
:10034000EA6AE96A700ED36ED3501690169216942C
:10035000176A186A0A0E196E020E1A6E1B6A1D6A57
:10036000216A206A1F6A1E6A256A246A236A226A31
:100370007D0E266E276A286AC150C00B0F09C16E18
:10038000070EB46EC150C00B0D09C16EC050C00B3A
:10039000C06EC09EC2809698C69A949A948894968D
:1003A000010EC66E000EC76ED190800ED56ECD6A5E
:1003B000000E0409CA6EC70ECB6E070EB46E9250C3
:1003C000926E060E006E002EFED70000B450A19C67
:1003D000B56A9D82C00EF212720ED36ED35006D74C
:1003E000010E2A6E2B6E2EDF8A9093908A92939242
:0603F0008ED7FED70300CA
:020000040030CA
:0E00000000C8190E008781000FC00FE00F40EE
:00000001FF
;PIC18F4620
;CRC=5A97  CREATED="12-jul.-23 10:16"
