:04000000E2EF06F035
:08000800046ED8CF05F0E0CF33
:1000100006F00001E9CF0CF0EACF07F0E1CF08F0DD
:10002000E2CF09F0D9CF0AF0DACF0BF0F3CF12F01C
:10003000F4CF13F0FACF14F0F5CF15F0F6CF16F099
:10004000F7CF17F000C00EF001C00FF002C010F0A3
:1000500003C011F09DA230EF00F09EB27CEF00F0E3
:100060000EC000F00FC001F010C002F011C003F08C
:100070000CC0E9FF07C0EAFF078E08C0E1FF09C016
:10008000E2FF0AC0D9FF0BC0DAFF12C0F3FF13C0B2
:10009000F4FF14C0FAFF15C0F5FF16C0F6FF17C035
:1000A000F7FF045006C0E0FF05C0D8FF1000F76A54
:1000B000BE0FF66E000EF7220900F5501200280C54
:1000C0000106433A202566200A48756D656461641F
:1000D0003A202566252500004D6178543A2000001D
:1000E0004D696E543A2000004D6178483A20000076
:1000F0004D696E483A2000001A50080809E21A6A51
:100100001B50F90803E21B6A198601D01B2A01D093
:100110001A2A9E9230EF00F0EA6A470EE96EEF501D
:100120000DE0020E016E006A002EFED7012EFBD7F5
:10013000970E006E002EFED7EF2EF3D712004EB0B2
:1001400002D08C9601D08C8695964EB202D08C94BB
:1001500001D08C8495944EB402D08C9201D08C82C4
:1001600095924EB602D08C9001D08C809590000074
:1001700094948B8400D000D094948B9412004F6A96
:1001800094948B84000095864F9083B64F8095841D
:100190004F9283B44F8295824F9483B24F8495805F
:1001A0004F9683B04F8694948B944FC001F0120009
:1001B00094928B820000E3DF01C04EF0E0DF01C0CB
:1001C0004DF04E38006EF00E001600504D10016ECE
:1001D000EDEF00F094908B90EBD701C04DF001BE95
:1001E000FBD74B5203E094908B8002D094908B907D
:1001F000000094928B92000094948B944C384D6E36
:100200000F0E4D164DC04EF09ADF4C500F0B4D6E39
:100210004E6E95DF120094908B9094928B929494F2
:100220008B940F0E476E78DF2F6A2F50020808E379
:10023000030E4E6E84DF050E476E6EDF2F2AF5D754
:10024000020E4E6E7CDF2F6A2F50030809E3036A0B
:100250002F502DDF306E4B6A4C6EBCDF2F2AF4D747
:100260003AEF07F0482C01D003D0400E496E01D080
:10027000496A010E475C4926495080094A6E4B6A1B
:100280004C6EA8DF1200946882CF30F0316A2F5094
:10029000640817E1030E326E3250070811E330C0D4
:1002A00000F03250016E04E0D8900032012EFCD7ED
:1002B00000A004D0020E325C316E02D0322AECD79C
:1002C00018D02F50090A01E005D0958E316A83BEFF
:1002D000312A0FD0020E2F24336E30C000F033507D
:1002E000016E04E0D8900032012EFCD7316A00B0D4
:1002F000312A31C001F012008E0E006E3AC001F0BA
:1003000039C002F0036A015209E102C001F0026A39
:10031000080E005E015202E1006A08D0D89001BECA
:1003200004D0023601360006F9D7019E120046506D
:10033000D8B471D0006E4A50D8B46DD0002604E312
:10034000810E002668E204D07F0E005E64E363E065
:1003500047C04EF04B504E1A478E4B8E49504D02BF
:10036000F4CF50F048504C02F4CF03F0F3CF4FF0ED
:100370004D02F3505026F4504F22000E03224950F4
:100380004C02F3505026F4504F22000E026A032212
:10039000022247504D02F3504F26F4500322000E24
:1003A000022247504C02F3500326F4500222000E62
:1003B000016A012249504B02F3504F26F4500322A8
:1003C000000E0222012248504B02F3500326F45043
:1003D0000222000E012247504B02F3500226F45035
:1003E0000122002A01BE05D04F36033602360136FF
:1003F0000006000E4FAE0AD0032A0222012201504D
:1004000005E1025003E1035001E1002A4EBE018ED6
:100410004EAE019E04D0006A016A026A036A1200AD
:100420003D50D8B4A5D0496E4150D8B4A1D0495E52
:1004300005E37F0E4926D8B09BD006D0810E495ED9
:10044000D8A096D0D8B494D049C000F0016A026A0E
:10045000036A486A3EC047F0478E3FC046F040C03E
:1004600045F0190E496E4450455E0DE2010E465EA0
:100470000AE2475E08E2485E06E2482A472A462A20
:100480004450452628D04350465E12E2010E475E96
:100490000FE2485E0DE2482A472A43504626445060
:1004A000452619E3462A17E1472A15E1482A13D0C1
:1004B00042508009475E0EE2010E485E0BE2482A78
:1004C00042508009472643504626E9E3472AE7E1A0
:1004D000482AE5D70380492E01D00BD0D890453665
:1004E000463647364836D8900336023601364A3605
:1004F000BAD74AA006D0D8900132023203324A322B
:1005000002D0000635E04ABE1ED0D89045364636A9
:10051000473648364450455E07E2010E465E04E227
:10052000475E02E2485E1AE34350465E05E2010E72
:10053000475E02E2485E12E342508009475E03E2F2
:10054000010E485E0BE3032A09E1022A07E1012AB2
:1005500005E1002A0DE00132023203323EC049F0CB
:100560004250491A49AE02D0018E06D0019E04D0F5
:10057000006A016A026A036A12003AC041F03E5002
:10058000411A41AE05D0D894D8903ABED8802FD029
:100590003AC041F03DC042F03950425E06E041AE03
:1005A00026D0D850010AD86E22D03EC042F03A5030
:1005B000425E06E041AE1BD0D850010AD86E17D07B
:1005C0003FC042F03B50425E06E041AE10D0D850F2
:1005D000010AD86E0CD040C042F03C50425E06E0AA
:1005E00041AE05D0D850010AD86E01D0D890120083
:1005F00046500C0A05E0060A0BE0020A0FE013D091
:100600004B6A010E4C6EE6DD020E476E85DD10D0A2
:10061000010E476E020E486E25DE0AD04B6A100EA0
:100620004C6ED8DD05D0010E4B6E46C04CF0D2DDCD
:1006300012000900F6CF3AF0F7CF3BF0F5CF46F0C5
:10064000D7DF3AC0F6FF3BC0F7FF392EF2D71200D2
:100650004650B608466E036A47C04AF0478ED890A7
:100660004732483249320332023201320032462EDA
:10067000F6D74AAE0BD0001E011E021E031E002A32
:10068000D8B4012AD8B4022AD8B4032AB6EF03F0AA
:10069000D8B203D0EA6A4E0EE96E006A016A026AB5
:1006A000036A4E6A4F6A506A516A4D504C104B10A3
:1006B0004A102CE0200E526ED89046364736483607
:1006C00049364E364F36503651364D50515C08E162
:1006D0004C50505C05E14B504F5C02E14A504E5C7F
:1006E0000FE34A504E5E4B50D8A04B3C4F5E4C50EF
:1006F000D8A04C3C505E4D50D8A04D3C515ED880A7
:100700000036013602360336522ED6D74EC0EFFFE2
:100710004FC0ECFF50C0ECFF51C0ECFF1200E9509D
:100720003E6E3D50406E19E03CC049F03BC048F081
:100730003AC047F039C046F04D6A4C6A200E4B6E05
:10074000820E4A6EF4DD03C03CF002C03BF001C0F3
:100750003AF000C039F0402EE7D73CC049F03BC02A
:1007600048F03AC047F039C046F072D703C03CF0B9
:1007700002C03BF001C03AF000C039F03CAE0DD0F1
:100780003E063E8A391E3A1E3B1E3C1E392AD8B40C
:100790003A2AD8B43B2AD8B43C2A3B0E456E9A0E6E
:1007A000446ECA0E436E426A0A0E406E3D50D8B483
:1007B0003E2AD882EA6A390EE96E3CC049F03BC055
:1007C00048F03AC047F039C046F045C04DF044C04B
:1007D0004CF043C04BF042C04AF05ADF0150005287
:1007E0000FE13D28405C0CE03E500CE00F0B405CFC
:1007F00001E037E23EBE35D03EBC04D0200E2DD005
:10080000200E3E163EAA0CD03E9A3D50D8A43E067D
:1008100000503E6E2D0E466EEBDE3E50006E3E6A80
:100820003D50405C0AE100503E6E2E0E466EE0DE0A
:100830003E50006E200E3E16000E300E3EAA0DD029
:100840003E9A3D50D8A43E0600503E6E2D0E466E98
:10085000CFDE3E50006E3E6A300E002600C046F0ED
:10086000C7DED89245C049F044C048F043C047F0C5
:1008700042C046F04D6A4C6A4B6A0A0E4A6E08DF67
:1008800003C045F002C044F001C043F000C042F094
:10089000402E8FD712000900F5520CE0F6CF39F048
:1008A000F7CF3AF0F5CF46F0A3DE39C0F6FF3AC0F5
:1008B000F7FFF1D712003F50016A3E5C03E23EC0F1
:1008C00000F00CD0006A080E406E3E3600363F50F5
:1008D000005CD8B0006E0136402EF7D712000150F0
:1008E0003CC03EF0640E3F6EE6DF00C03CF00150BD
:1008F000300E07E13DA20CD03DB60AD03DB8200E27
:1009000003D03D963D983D80012601C046F070DE43
:100910003CC03EF00A0E3F6ECEDF00C03CF00150FE
:10092000300E06E13DB608D03DA006D03DB8200E01
:10093000012601C046F05CDE300E3C263CC046F08D
:1009400057DEB1EF04F03A50395C06E13C0E466EDA
:100950004FDE200E466E4CDE3BC03CF01B0E3D6E63
:10096000BED73A50395C06E1200E466E41DE3E0E9F
:10097000466E3EDE0A0E466E3BDE12001C50000A3A
:1009800007E0010AD8B46AD1020AD8B4F6D1F5D189
:10099000000E016EC250C30B0110C26E060E006E37
:1009A000002EFED70000C282C2B2FED7C4503A6AFF
:1009B000396EA2DC03C03CF002C03BF001C03AF04B
:1009C00000C039F003C049F002C048F001C047F050
:1009D00000C046F04D6A4C6A480E4B6E850E4A6E5A
:1009E000A6DC03C03CF002C03BF001C03AF000C0FE
:1009F00039F003C040F002C03FF001C03EF000C03B
:100A00003DF0446A436A7F0E426E860E416E08DDF9
:100A100003C033F002C032F001C031F000C030F04A
:100A2000040E016EC250C30B0110C26E060E006EA2
:100A3000002EFED70000C282C2B2FED7C4503A6A6E
:100A4000396E5ADC03C03CF002C03BF001C03AF002
:100A500000C039F003C049F002C048F001C047F0BF
:100A600000C046F04D6A4C6A480E4B6E850E4A6EC9
:100A70005EDC03C03CF002C03BF001C03AF000C0B5
:100A800039F003C040F002C03FF001C03EF000C0AA
:100A90003DF0446A436A7F0E426E860E416EC0DCB2
:100AA00003C037F002C036F001C035F000C034F0AA
:100AB0003A6A20C039F020DC37C03CF036C03BF049
:100AC00035C03AF034C039F003C040F002C03FF006
:100AD00001C03EF000C03DF050DD03E38A869396EE
:100AE00018D03A6A1FC039F007DC03C03CF002C0DE
:100AF0003BF001C03AF000C039F037C040F036C0DA
:100B00003FF035C03EF034C03DF037DD02E38A9659
:100B100093963A6A1EC039F07CEC01F033C03CF089
:100B200032C03BF031C03AF030C039F003C040F081
:100B300002C03FF001C03EF000C03DF01EDD03E307
:100B40008A82939219D03A6A1DC039F07CEC01F088
:100B500003C03CF002C03BF001C03AF000C039F0E5
:100B600033C040F032C03FF031C03EF030C03DF005
:100B700004DD02E38A92939233C03CF032C03BF032
:100B800031C03AF030C039F024C040F023C03FF00B
:100B900022C03EF021C03DF0F0DC12E137C03CF055
:100BA00036C03BF035C03AF034C039F028C040F0D0
:100BB00027C03FF026C03EF025C03DF0DEDC43E01C
:100BC000010E476E486E32EC01F00C0E466E10DDE1
:100BD000C20EF66E000EF76E030E396E2ADD890E18
:100BE000E96E33C03CF032C03BF031C03AF030C067
:100BF00039F0020E3D6E93DDC70EF66E000EF76EF5
:100C00000B0E396E16DD890EE96E37C03CF036C02A
:100C10003BF035C03AF034C039F0020E3D6E7FDD56
:100C2000250E466EE5DC33C024F032C023F031C01F
:100C300022F030C021F037C028F036C027F035C090
:100C400026F034C025F02F5208E019B406D00C0E5F
:100C5000466ECEDC1984010E1C6E8FD02F52D8B494
:100C60008BD0386A010E2F5CFB0F2CE2050FBFEF13
:100C700006F019B408D02A5202E0010E2A5E295269
:100C800002E0010E295E1ED019B40AD02A500108D4
:100C900002E3010E2A262950020802E3010E29264A
:100CA00011D038680FD0010E386E0CD019B40AD0AC
:100CB00019841C6A246A236A226A216A286A276ABC
:100CC000266A256A2950FC0F13E2040FD1EF06F0C3
:100CD00038501D260DD038501E260AD038501F26F9
:100CE00007D03850202604D019840C0E466E80DCC4
:100CF0002A520BE1D80EF66E000EF76ECCDD29C03D
:100D000039F03A6A1DC03BF01EDE2A5001080CE3A0
:100D1000E00EF66E000EF76EBEDD29C039F0010E52
:100D20003A6E1EC03BF00FDE2A5002080EE32A5234
:100D30000CE0E80EF66E000EF76EADDD29C039F05E
:100D4000020E3A6E1FC03BF0FEDD2A5003080FE38F
:100D50002A5001080CE2F00EF66E000EF76E9BDDD5
:100D600029C039F0030E3A6E20C03BF0ECDD010ED5
:100D7000476E486E32EC01F000D057EF07F0E824E0
:100D8000F76AF736990FF66E0D0EF7220A00F55046
:100D9000FA6E0800F550F96E720CA20CAC0CA60CA1
:100DA000880CE824F76AF736BD0FF66E0D0EF722B1
:100DB0000A00F550FA6E0800F550F96ED00CD60C0A
:100DC000DC0CE20CF86AD09E078E700ED36E9B6A24
:100DD000D35019801992199419961A6A1B6A1C6AC1
:100DE0004B0E1D6E190E1E6E4B0E1F6E190E206ED1
:100DF000246A236A226A216A286A276A266A256A7F
:100E0000296A2A6A2C6A2B6AC150C00B0F09C16E6D
:100E1000070EB46EC150C00B0D09C16EC050C00B9F
:100E2000C06EC09EC2809698C69A949A94889496F2
:100E3000010EC66E000EC76ED190800ED56ECD6AC3
:100E4000000E0409CA6EC70ECB6E070EB46E925028
:100E5000926E060E006E002EFED70000B450A19CCC
:100E6000B56A9D82C00EF212720ED36E9B6AD35089
:100E70000BEF01F0010E476E486E32EC01F08A96DE
:100E800093968A9293928A989398010E476E486E31
:100E900032EC01F0640E2F6E43EC01F001C02DF036
:100EA00019A008D019A606D02DC02FF067D59398A9
:100EB0008A781996090E2F6E43EC01F02E9001B03E
:100EC0002E8019B205D02EA002D01970198203D03D
:100ED0002EB001D019922D5203E119A401D019941A
:040EE000D9D703005B
:020000040030CA
:0E00000000C8190E008781000FC00FE00F40EE
:00000001FF
;PIC18F4620
;CRC=149E  CREATED="02-ago.-23 14:39"
