:100000002EEF01F07CEF01F0046ED8CF05F0E0CFC9
:1000100006F00001E9CF0CF0EACF07F0E1CF08F0DD
:10002000E2CF09F0D9CF0AF0DACF0BF0F3CF12F01C
:10003000F4CF13F0FACF14F0F5CF15F0F6CF16F099
:10004000F7CF17F000C00EF001C00FF002C010F0A3
:1000500003C011F09DA230EF00F09EB261EF00F0FE
:100060000EC000F00FC001F010C002F011C003F08C
:100070000CC0E9FF07C0EAFF078E08C0E1FF09C016
:10008000E2FF0AC0D9FF0BC0DAFF12C0F3FF13C0B2
:10009000F4FF14C0FAFF15C0F5FF16C0F6FF17C035
:1000A000F7FF045006C0E0FF05C0D8FF1000F76A54
:1000B000BE0FF66E000EF7220900F5501200280C54
:1000C00001061950630802E3192A0DD0196A1A2A89
:1000D0001A50310808E21A6A1B701BB002D08A96C7
:1000E00001D08A8693969E9230EF00F0EA6A1D0E48
:1000F000E96EEF500DE0020E016E006A002EFED791
:10010000012EFBD7970E006E002EFED7EF2EF3D7F1
:10011000120023B002D08C9601D08C86959623B223
:1001200002D08C9401D08C84959423B402D08C920C
:1001300001D08C82959223B602D08C9001D08C8015
:100140009590000094948B8400D000D094948B946C
:100150001200246A94948B8400009586249083B6C0
:1001600024809584249283B424829582249483B23B
:1001700024849580249683B0248694948B9424C000
:1001800001F0120094928B820000E3DF01C023F0A3
:10019000E0DF01C022F02338006EF00E00160050A0
:1001A0002210016ED7EF00F094908B90EBD701C036
:1001B00022F001BEFBD7205203E094908B8002D046
:1001C00094908B90000094928B92000094948B9466
:1001D0002138226E0F0E221622C023F09ADF215002
:1001E0000F0B226E236E95DF120094908B909492E9
:1001F0008B9294948B940F0E1D6E78DF1C6A1C50AA
:10020000020808E3030E236E84DF050E1D6E6EDF09
:100210001C2AF5D7020E236E7CDF1C6A1C500308D3
:1002200009E3036A1C5043DF1D6E206A216EBCDFA8
:100230001C2AF4D76DEF01F01D2C01D003D0400E25
:100240001E6E01D01E6A010E1C5C1E261E50800907
:100250001F6E206A216EA8DF71EF01F0F86AD09E50
:10026000078E700ED36E9B6AD350196A1A6A1B8070
:10027000C150C00B0F09C16E070EB46EC150C00B48
:100280000D09C16EC050C00BC06EC09EC280969852
:10029000C69A949A94889496010EC66E000EC76E04
:1002A000D190800ED56ECD6A000E0409CA6EC70EBD
:1002B000CB6E070EB46E9250926E060E006E002E3C
:1002C000FED70000B450A19CB56A9D82C00EF21208
:1002D000720ED36E9B6AD35088D7010E1C6E1D6EB2
:1002E000ABD78A9093908A9293921BB002D08A9651
:0C02F00001D08A86939686D6FED70300C4
:020000040030CA
:0E00000000C8190E008781000FC00FE00F40EE
:00000001FF
;PIC18F4620
;CRC=13FA  CREATED="31-jul.-23 15:37"
