:04000000BDEF04F05C
:08000800046ED8CF05F0E0CF33
:1000100006F00001E9CF0CF0EACF07F0E1CF08F0DD
:10002000E2CF09F0D9CF0AF0DACF0BF0F3CF12F01C
:10003000F4CF13F0FACF14F0F5CF15F0F6CF16F099
:10004000F7CF17F000C00EF001C00FF002C010F0A3
:1000500003C011F09DA230EF00F09EB271EF00F0EE
:100060000EC000F00FC001F010C002F011C003F08C
:100070000CC0E9FF07C0EAFF078E08C0E1FF09C016
:10008000E2FF0AC0D9FF0BC0DAFF12C0F3FF13C0B2
:10009000F4FF14C0FAFF15C0F5FF16C0F6FF17C035
:1000A000F7FF045006C0E0FF05C0D8FF1000F76A54
:1000B000BE0FF66E000EF7220900F5501200280C54
:1000C00001060C2025752025752025752025752015
:1000D0002575202575202575200A20257520257574
:1000E00000001A50630802E31A2A0DD01A6A1B2A6C
:1000F0001B50310808E21B6A197819B802D08A9897
:1001000001D08A8893989E9230EF00F0EA6A420EFE
:10011000E96EEF500DE0020E016E006A002EFED770
:10012000012EFBD7970E006E002EFED7EF2EF3D7D1
:10013000120049B002D08C9601D08C86959649B2B7
:1001400002D08C9401D08C84959449B402D08C92C6
:1001500001D08C82959249B602D08C9001D08C80CF
:100160009590000094948B8400D000D094948B944C
:1001700012004A6A94948B84000095864A9083B654
:100180004A8095844A9283B44A8295824A9483B283
:100190004A8495804A9683B04A8694948B944AC048
:1001A00001F0120094928B820000E3DF01C049F05D
:1001B000E0DF01C048F04938006EF00E0016005034
:1001C0004810016EE7EF00F094908B90EBD701C0E0
:1001D00048F001BEFBD7465203E094908B8002D0DA
:1001E00094908B90000094928B92000094948B9446
:1001F0004738486E0F0E481648C049F09ADF4750FE
:100200000F0B486E496E95DF120094908B9094927C
:100210008B9294948B940F0E426E78DF336A335036
:10022000020808E3030E496E84DF050E426E6EDF9E
:10023000332AF5D7020E496E7CDF336A3350030848
:1002400009E3036A335033DF346E466A476EBCDF1E
:10025000332AF4D714EF05F0432C01D003D0400E1D
:10026000446E01D0446A010E425C44264450800929
:10027000456E466A476EA8DF12008E0E006E3FC0C4
:1002800001F03EC002F0036A015209E102C001F030
:10029000026A080E005E015202E1006A08D0D8909E
:1002A00001BE04D0023601360006F9D7019E1200C5
:1002B0004250D8B471D0006E4650D8B46DD00026EC
:1002C00004E3810E002668E204D07F0E005E64E342
:1002D00063E043C04AF047504A1A438E478E455068
:1002E0004902F4CF4CF044504802F4CF03F0F3CF6E
:1002F0004BF04902F3504C26F4504B22000E0322DF
:1003000045504802F3504C26F4504B22000E026A2E
:100310000322022243504902F3504B26F450032299
:10032000000E022243504802F3500326F4500222EA
:10033000000E016A012245504702F3504B26F4504B
:100340000322000E0222012244504702F3500326EA
:10035000F4500222000E012243504702F3500226BD
:10036000F4500122002A01BE05D04B360336023676
:1003700001360006000E4BAE0AD0032A02220122EB
:10038000015005E1025003E1035001E1002A4ABE99
:10039000018E4AAE019E04D0006A016A026A036AB5
:1003A00012004250D8B4A5D04E6E4650D8B4A1D059
:1003B0004E5E05E37F0E4E26D8B09BD006D0810E50
:1003C0004E5ED8A096D0D8B494D04EC000F0016A4A
:1003D000026A036A4D6A43C04CF04C8E44C04BF035
:1003E00045C04AF0190E4E6E49504A5E0DE2010EAC
:1003F0004B5E0AE24C5E08E24D5E06E24D2A4C2A54
:100400004B2A49504A2628D048504B5E12E2010E32
:100410004C5E0FE24D5E0DE24D2A4C2A48504B26B1
:1004200049504A2619E34B2A17E14C2A15E14D2A77
:1004300013D0475080094C5E0EE2010E4D5E0BE278
:100440004D2A475080094C2648504B26E9E34C2A58
:10045000E7E14D2AE5D703804E2E01D00BD0D8908E
:100460004A364B364C364D36D89003360236013676
:100470004F36BAD74FA006D0D8900132023203329D
:100480004F3202D0000635E04FBE1ED0D8904A361B
:100490004B364C364D3649504A5E07E2010E4B5EF4
:1004A00004E24C5E02E24D5E1AE348504B5E05E208
:1004B000010E4C5E02E24D5E12E3475080094C5E35
:1004C00003E2010E4D5E0BE3032A09E1022A07E174
:1004D000012A05E1002A0DE001320232033243C055
:1004E0004EF047504E1A4EAE02D0018E06D0019EFD
:1004F00004D0006A016A026A036A12008E0E006E5E
:100500003E50005E3FC002F040C001F0028E00523B
:1005100009E0D890025202E1015204E002320132B5
:10052000002EF7D73FAE05D0011E021E012AD8B417
:10053000022A12003FC046F04350461A46AE05D08C
:10054000D894D8903FBED8802FD03FC046F042C04C
:1005500047F03E50475E06E046AE26D0D850010A2E
:10056000D86E22D043C047F03F50475E06E046AE0B
:100570001BD0D850010AD86E17D044C047F0405065
:10058000475E06E046AE10D0D850010AD86E0CD0B7
:1005900045C047F04150475E06E046AE05D0D85012
:1005A000010AD86E01D0D890120041500C0A05E023
:1005B000060A0BE0020A0FE013D0466A010E476EEE
:1005C00003DE020E426EA2DD10D0010E426E020E5C
:1005D000436E42DE0AD0466A100E476EF5DD05D046
:1005E000010E466E41C047F0EFDD12004150016A36
:1005F000405C03E240C000F00CD0006A080E426E7E
:10060000403600364150005CD8B0006E0136422EB4
:10061000F7D7120001503EC040F0640E416EE6DF95
:1006200000C03EF00150300E07E13FA20CD03FB6B3
:100630000AD03FB8200E03D03F963F983F80012656
:1006400001C041F0B2DF3EC040F00A0E416ECEDF85
:1006500000C03EF00150300E06E13FB608D03FA08A
:1006600006D03FB8200E012601C041F09EDF300EBB
:100670003E263EC041F099DF12000900F6CF3FF060
:10068000F7CF40F0F5CF41F090DF3FC0F6FF40C01C
:10069000F7FF3E2EF2D785EF04F0000E016EC25038
:1006A000C30B0110C26E060E006E002EFED70000B6
:1006B000C282C2B2FED7C4503F6A3E6EDEDD03C0C6
:1006C00041F002C040F001C03FF000C03EF003C066
:1006D00045F002C044F001C043F000C042F0496A56
:1006E000486A480E476E850E466EE2DD03C041F053
:1006F00002C040F001C03FF000C03EF003C045F032
:1007000002C044F001C043F000C042F0496A486AA8
:100710007F0E476E860E466E44DE03C041F002C077
:1007200040F001C03FF000C03EF0E8DE01C03BF009
:10073000040E016EC250C30B0110C26E060E006E95
:10074000002EFED70000C282C2B2FED7C4503F6A5C
:100750003E6E93DD03C041F002C040F001C03FF0A7
:1007600000C03EF003C045F002C044F001C043F0B9
:1007700000C042F0496A486A480E476E850E466ED0
:1007800097DD03C041F002C040F001C03FF000C05F
:100790003EF003C045F002C044F001C043F000C089
:1007A00042F0496A486A7F0E476E860E466EF9DD52
:1007B00003C041F002C040F001C03FF000C03EF075
:1007C0009DDE01C03CF09486346A82B6342A948857
:1007D000356A82B8352A948A366A82BA362A948C67
:1007E000376A82BC372A948E386A82BE382A958C42
:1007F000396A83BC392A958E3A6A83BE3A2A3D6AA1
:100800003D500608D8A091D0036A3D50340FE96EE0
:10081000000E0320EA6EEFCF3EF0036A3D502B0F2F
:10082000E96E000E0320EA6EEF503E5C2CE13F6A59
:100830003BC03EF022DD03C041F002C040F001C0E9
:100840003FF000C03EF024C045F023C044F022C079
:1008500043F021C042F06EDE16E13F6A3CC03EF03C
:100860000CDD03C041F002C040F001C03FF000C009
:100870003EF028C045F027C044F026C043F025C014
:1008800042F058DE50E00C0E416E8FDE200E416EBD
:100890008CDE34C03EF01B0E3F6EBCDE200E416E7F
:1008A00084DE35C03EF01B0E3F6EB4DE200E416E7E
:1008B0007CDE36C03EF01B0E3F6EACDE200E416E7D
:1008C00074DE37C03EF01B0E3F6EA4DE200E416E7C
:1008D0006CDE38C03EF01B0E3F6E9CDE200E416E7B
:1008E00064DE39C03EF01B0E3F6E94DE200E416E7A
:1008F0005CDE3AC03EF01B0E3F6E8CDED80EF66E0C
:10090000000EF76E030E3E6EB8D63BC03EF01B0ED7
:100910003F6E80DE200E416E48DE3CC03EF01B0E76
:100920003F6E78DE02D03D2A6BD73F6A3BC03EF077
:10093000A4DC03C024F002C023F001C022F000C0F8
:1009400021F03F6A3CC03EF098DC03C028F002C0B2
:1009500027F001C026F000C025F034C02BF035C0D0
:100960002CF036C02DF037C02EF038C02FF039C033
:1009700030F03AC031F031EF05F0F86AD09E078EC2
:10098000700ED36E9B6AD3501980199219941996E0
:100990001A6A1B6A19881C6A4B0E1D6E190E1E6E90
:1009A0004B0E1F6E190E206E246A236A226A216A7A
:1009B000286A276A266A256A296A2A6AC150C00BF2
:1009C0000F09C16E070EB46EC150C00B0D09C16E88
:1009D000C050C00BC06EC09EC2809698C69A949AB2
:1009E00094889496010EC66E000EC76ED190800E4C
:1009F000D56ECD6A000E0409CA6EC70ECB6E070E07
:100A0000B46E9250926E060E006E002EFED700005D
:100A1000B450A19CB56A9D82C00EF212720ED36EC4
:100A20009B6AD35005EF01F0010E426E436E14DC59
:100A30008A9693968A929392010E426E436E0CDCD4
:100A4000326A325006080BE3036A32502B0FE96E0C
:100A5000000E0320EA6E010EEF6E322AF2D7336ADF
:0E0A60001CD6960E426E86EC00F0F9D703000D
:020000040030CA
:0E00000000C8190E008781000FC00FE00F40EE
:00000001FF
;PIC18F4620
;CRC=F1AA  CREATED="02-ago.-23 15:37"
