:040000002EEF04F0EB
:08000800046ED8CF05F0E0CF33
:1000100006F00001E9CF0CF0EACF07F0E1CF08F0DD
:10002000E2CF09F0D9CF0AF0DACF0BF0F3CF12F01C
:10003000F4CF13F0FACF14F0F5CF15F0F6CF16F099
:10004000F7CF17F000C00EF001C00FF002C010F0A3
:1000500003C011F09DA230EF00F09EB272EF00F0ED
:100060000EC000F00FC001F010C002F011C003F08C
:100070000CC0E9FF07C0EAFF078E08C0E1FF09C016
:10008000E2FF0AC0D9FF0BC0DAFF12C0F3FF13C0B2
:10009000F4FF14C0FAFF15C0F5FF16C0F6FF17C035
:1000A000F7FF045006C0E0FF05C0D8FF1000F76A54
:1000B000BE0FF66E000EF7220900F5501200280C54
:1000C00001060C53657175656461643A2020202037
:1000D00025750A54656D70657261747572613A2098
:1000E000257500001E50630802E31E2A0DD01E6A0B
:1000F0001F2A1F50310808E21F6A1D7C1DBC02D058
:100100008A9801D08A8893989E9230EF00F0EA6A2C
:10011000400EE96EEF500DE0020E016E006A002EF7
:10012000FED7012EFBD7970E006E002EFED7EF2EC6
:10013000F3D7120047B002D08C9601D08C869596EA
:1001400047B202D08C9401D08C84959447B402D0ED
:100150008C9201D08C82959247B602D08C9001D0BF
:100160008C809590000094948B8400D000D094945F
:100170008B941200486A94948B8400009586489072
:1001800083B648809584489283B448829582489487
:1001900083B248849580489683B0488694948B9423
:1001A00048C001F0120094928B820000E3DF01C08E
:1001B00047F0E0DF01C046F04738006EF00E001651
:1001C00000504610016EE8EF00F094908B90EBD752
:1001D00001C046F001BEFBD7445203E094908B80EF
:1001E00002D094908B90000094928B920000949493
:1001F0008B944538466E0F0E461646C047F09ADF80
:1002000045500F0B466E476E95DF120094908B9011
:1002100094928B9294948B940F0E406E78DF316A97
:100220003150020808E3030E476E84DF050E406E6E
:100230006EDF312AF5D7020E476E7CDF316A31500E
:10024000030809E3036A315032DF326E446A456EB7
:10025000BCDF312AF4D784EF04F0412C01D003D065
:10026000400E426E01D0426A010E405C422642506E
:100270008009436E446A456EA8DF12008E0E006E40
:100280003DC001F03CC002F0036A015209E102C026
:1002900001F0026A080E005E015202E1006A08D015
:1002A000D89001BE04D0023601360006F9D7019E6F
:1002B00012004050D8B471D0006E4450D8B46DD004
:1002C000002604E3810E002668E204D07F0E005E63
:1002D00064E363E041C048F04550481A418E458EC2
:1002E00043504702F4CF4AF042504602F4CF03F0A5
:1002F000F3CF49F04702F3504A26F4504922000E4A
:10030000032243504602F3504A26F4504922000E7D
:10031000026A0322022241504702F3504926F45058
:100320000322000E022241504602F3500326F450ED
:100330000222000E016A012243504502F350492671
:10034000F4500322000E0222012242504502F350D3
:100350000326F4500222000E012241504502F350C0
:100360000226F4500122002A01BE05D04936033688
:10037000023601360006000E49AE0AD0032A0222D8
:100380000122015005E1025003E1035001E1002A7E
:1003900048BE018E48AE019E04D0006A016A026A1E
:1003A000036A12004050D8B4A5D04C6E4450D8B463
:1003B000A1D04C5E05E37F0E4C26D8B09BD006D072
:1003C000810E4C5ED8A096D0D8B494D04CC000F02A
:1003D000016A026A036A4B6A41C04AF04A8E42C00F
:1003E00049F043C048F0190E4C6E4750485E0DE28C
:1003F000010E495E0AE24A5E08E24B5E06E24B2AC3
:100400004A2A492A4750482628D04650495E12E2D7
:10041000010E4A5E0FE24B5E0DE24B2A4A2A46501D
:1004200049264750482619E3492A17E14A2A15E187
:100430004B2A13D0455080094A5E0EE2010E4B5EF6
:100440000BE24B2A455080094A2646504926E9E3EB
:100450004A2AE7E14B2AE5D703804C2E01D00BD086
:10046000D890483649364A364B36D890033602364D
:1004700001364D36BAD74DA006D0D890013202329F
:1004800003324D3202D0000635E04DBE1ED0D8906A
:10049000483649364A364B364750485E07E2010E29
:1004A000495E04E24A5E02E24B5E1AE34650495E50
:1004B00005E2010E4A5E02E24B5E12E345508009FE
:1004C0004A5E03E2010E4B5E0BE3032A09E1022AB6
:1004D00007E1012A05E1002A0DE001320232033270
:1004E00041C04CF045504C1A4CAE02D0018E06D0A3
:1004F000019E04D0006A016A026A036A12008E0E2D
:10050000006E3C50005E3DC002F03EC001F0028E25
:10051000005209E0D890025202E1015204E0023296
:100520000132002EF7D73DAE05D0011E021E012A72
:10053000D8B4022A12003F500C0A05E0060A0BE06C
:10054000020A0FE013D0446A010E456E3EDE020E31
:10055000406EDDDD10D0010E406E020E416E7DDE7C
:100560000AD0446A100E456E30DE05D0010E446E8E
:100570003FC045F02ADE12000900F6CF3DF0F7CF6C
:100580003EF0F5CF3FF0D7DF3DC0F6FF3EC0F7FFAE
:100590003C2EF2D712003F50016A3E5C03E23EC09F
:1005A00000F00CD0006A080E406E3E3600363F5018
:1005B000005CD8B0006E0136402EF7D71200015013
:1005C0003CC03EF0640E3F6EE6DF00C03CF00150E0
:1005D000300E07E13DA20CD03DB60AD03DB8200E4A
:1005E00003D03D963D983D80012601C03FF0A3DF3A
:1005F0003CC03EF00A0E3F6ECEDF00C03CF0015022
:10060000300E06E13DB608D03DA006D03DB8200E24
:10061000012601C03FF08FDF300E3C263CC03FF08A
:100620008ADF1200000E016EC250C30B0110C26EB1
:10063000060E006E002EFED70000C282C2B2FED7A8
:10064000C4503D6A3C6E1ADE03C03FF002C03EF06B
:1006500001C03DF000C03CF003C043F002C042F0D6
:1006600001C041F000C040F0476A466A480E456E3E
:10067000850E446E1EDE03C03FF002C03EF001C096
:100680003DF000C03CF003C043F002C042F001C0A6
:1006900041F000C040F0476A466A7F0E456E860E04
:1006A000446E80DE03C03FF002C03EF001C03DF06A
:1006B00000C03CF024DF01C039F0040E016EC250CE
:1006C000C30B0110C26E060E006E002EFED7000096
:1006D000C282C2B2FED7C4503D6A3C6ECFDD03C0B9
:1006E0003FF002C03EF001C03DF000C03CF003C04E
:1006F00043F002C042F001C041F000C040F0476A40
:10070000466A480E456E850E446ED3DD03C03FF049
:1007100002C03EF001C03DF000C03CF003C043F019
:1007200002C042F001C041F000C040F0476A466A92
:100730007F0E456E860E446E35DE03C03FF002C06C
:100740003EF001C03DF000C03CF0D9DE01C03AF0FF
:100750009486326A82B6322A9488336A82B8332AFF
:10076000948A346A82BA342A948C356A82BC352AD7
:10077000948E366A82BE362A958C376A83BC372AB5
:10078000958E386A83BE382A3B6A3B50060834E3AC
:10079000036A3B50320FE96E000E0320EA6EEFCF82
:1007A0003CF0036A3B50290FE96E000E0320EA6E0D
:1007B000EF503C5C06E12550395C03E126503A5C81
:1007C00019E0C20EF66E000EF76E0E0E3C6ED4DE11
:1007D0003AC03CF01B0E3D6EF2DED20EF66E000EFD
:1007E000F76E0E0E3C6EC8DE39C03CF01B0E3D6E3F
:1007F000E6DE02D03B2AC9D724503A5C02E21D98BB
:1008000004D03A50235C01E21D882250395C02E298
:100810001D9A04D03950215C01E21D8A39C025F0AF
:100820003AC026F032C029F033C02AF034C02BF091
:1008300035C02CF036C02DF037C02EF038C02FF068
:100840001DB802D08A9601D08A8693961DBA02D02E
:100850008A9A01D08A8A939AA1EF04F0F86AD09E0E
:10086000078E700ED36E9B6AD3501C6A1B6A1A6A7D
:10087000196A1D801D921D941D961E6A1F6A1D888F
:100880001D8A1D8C206A4B0E216E190E226E4B0E96
:10089000236E190E246E256A266A276A286AC150BB
:1008A000C00B0F09C16E070EB46EC150C00B0D090D
:1008B000C16EC050C00BC06EC09EC2809698C69AD2
:1008C000949A94889496010EC66E000EC76ED190CD
:1008D000800ED56ECD6A000E0409CA6EC70ECB6EAF
:1008E000070EB46E9250926E060E006E002EFED76A
:1008F0000000B450A19CB56A9D82C00EF212720E27
:10090000D36E9B6AD35082D4010E406E416EA5DC3B
:100910008A9693968A929392010E406E416E9DDC68
:10092000306A305006080BE3036A3050290FE96E35
:10093000000E0320EA6E010EEF6E302AF2D7316A04
:0E09400071D6960E406E87EC00F0F9D70300DA
:020000040030CA
:0E00000000C8190E008781000FC00FE00F40EE
:00000001FF
;PIC18F4620
;CRC=6ADA  CREATED="03-ago.-23 16:17"
